:100000000C9462000C948A000C948A000C948A0070
:100010000C948A000C948A000C948A000C948A0038
:100020000C948A000C948A000C948A000C948A0028
:100030000C948A000C948A000C948A000C948A0018
:100040000C940F100C948A000C94DD0F0C94B70FD5
:100050000C948A000C948A000C948A000C948A00F8
:100060000C9459100C948A00000000002400270012
:100070002A0000000000250028002B0000000000DE
:1000800023002600290004040404040404040202DA
:100090000202020203030303030301020408102007
:1000A0004080010204081020010204081020000012
:1000B0000008000201000003040700000000000027
:1000C0000000741111241FBECFEFD8E0DEBFCDBFFA
:1000D00012E0A0E0B1E0E8EAF6E202C005900D927D
:1000E000AE3FB107D9F724E0AEEFB2E001C01D92F8
:1000F000AC37B207E1F710E0C2E6D0E004C02197C8
:10010000FE010E944C13C136D107C9F70E94281284
:100110000C9452130C940000AF92BF92CF92DF92D6
:10012000EF92FF920F931F93CF93DF936C017B01AC
:100130008B01040F151FEB015E01AE18BF08C0173D
:10014000D10759F06991D601ED91FC910190F081B0
:10015000E02DC6010995892B79F7C501DF91CF9173
:100160001F910F91FF90EF90DF90CF90BF90AF90D5
:100170000895FC01538D448D252F30E0842F90E0AD
:10018000821B930B541710F0CF9608950197089592
:10019000FC01918D828D981761F0A28DAE0FBF2F5B
:1001A000B11D5D968C91928D9F5F9F73928F90E0B1
:1001B00008958FEF9FEF0895FC01918D828D981720
:1001C00031F0828DE80FF11D858D90E008958FEF5D
:1001D0009FEF0895FC01918D228D892F90E0805C26
:1001E0009F4F821B91098F739927089587E893E0A9
:1001F0000E94EA0021E0892B09F420E0822F089573
:1002000080E090E0892B29F00E94F60081110C9487
:1002100000000895FC01A48DA80FB92FB11DA35AA9
:10022000BF4F2C91848D90E001968F739927848F16
:10023000A689B7892C93A089B1898C918370806439
:100240008C93938D848D981306C00288F389E02DDA
:1002500080818F7D80830895EF92FF920F931F938B
:10026000CF93DF93EC0181E0888F9B8D8C8D981369
:100270001AC0E889F989808185FF15C09FB7F89475
:10028000EE89FF896083E889F989808183708064C1
:1002900080839FBF81E090E0DF91CF911F910F910C
:1002A000FF90EF900895F62E0B8D10E00F5F1F4F1B
:1002B0000F731127E02E8C8D8E110CC00FB607FC2A
:1002C000FACFE889F989808185FFF5CFCE010E94B8
:1002D0000A01F1CFEB8DEC0FFD2FF11DE35AFF4F1B
:1002E000F0829FB7F8940B8FEA89FB898081806246
:1002F000CFCFCF93DF93EC01888D8823B9F0AA8903
:10030000BB89E889F9898C9185FD03C0808186FDD0
:100310000DC00FB607FCF7CF8C9185FFF2CF80811F
:1003200085FFEDCFCE010E940A01E9CFDF91CF9189
:100330000895833081F028F4813099F08230A9F05B
:1003400008958730A9F08830C9F08430B1F48091E5
:1003500080008F7D03C0809180008F778093800024
:10036000089584B58F7784BD089584B58F7DFBCFC4
:100370008091B0008F778093B00008958091B00095
:100380008F7DF9CFCF93DF93282F30E0F901E2552D
:10039000FF4F8491F901E656FF4FD491F901EA57D6
:1003A000FF4FC491CC23A1F081110E949901EC2F41
:1003B000F0E0EE0FFF1FE458FF4FA591B491EC91D0
:1003C000ED2381E090E009F480E0DF91CF91089582
:1003D00080E090E0FACF1F93CF93DF93282F30E097
:1003E000F901E255FF4F8491F901E656FF4FD49190
:1003F000F901EA57FF4FC491CC23A9F0162F8111C0
:100400000E949901EC2FF0E0EE0FFF1FEE58FF4F16
:10041000A591B4918FB7F894EC91111108C0D095C3
:10042000DE23DC938FBFDF91CF911F910895DE2BE8
:10043000F8CFCF93DF9390E0FC01E656FF4F249175
:100440008A579F4FFC0184918823D1F090E0880F58
:10045000991FFC01E859FF4FA591B491FC01EE589A
:10046000FF4FC591D491623071F49FB7F8943C91DD
:10047000822F809583238C93E8812E2B28839FBF26
:10048000DF91CF9108958FB7F894EC912E2B2C9398
:100490008FBFF6CF3FB7F894809183039091840388
:1004A000A0918503B091860326B5A89B05C02F3F78
:1004B00019F00196A11DB11D3FBFBA2FA92F982F8A
:1004C0008827BC01CD01620F711D811D911D42E085
:1004D000660F771F881F991F4A95D1F708958F924D
:1004E0009F92AF92BF92CF92DF92EF92FF926B01F9
:1004F0007C010E944A024B015C01C114D104E10459
:10050000F104B9F00E944A02681979098A099B0925
:10051000683E73408105910580F321E0C21AD1083D
:10052000E108F10888EE880E83E0981EA11CB11C3A
:10053000E4CFFF90EF90DF90CF90BF90AF909F906F
:100540008F900895CF92DF92EF92FF920F931F93B7
:100550008FB7F894C0907F03D0908003E090810320
:10056000F09082038FBF00917A0310917B0320915A
:100570007C0330917D03C01AD10AE20AF30A60912C
:10058000760370917703809178039091790348EE18
:10059000C41643E0D406E104F104C8F06F5F7F4F56
:1005A0008F4F9F4F60937603709377038093780308
:1005B0009093790308511C4F2F4F3F4F00937A03BC
:1005C00010937B0320937C0330937D03C1CF1F9155
:1005D0000F91FF90EF90DF90CF9008954F925F9230
:1005E0006F927F928F929F92AF92BF92CF92DF9243
:1005F000EF92FF920F931F93CF93DF934B015C0118
:100600008091720390917303A0917403B09175036C
:1006100088159905AA05BB0509F4C6C08CE3C82E48
:10062000D12CE12CF12CC501A70196010E941613D3
:1006300060936B03CA01B901A70196010E941613CA
:1006400060936C03C501B40120E13EE040E050E05E
:100650000E941613CA01B90128E130E040E050E0E1
:100660000E94161360936D03C501B40120E831E5C3
:1006700041E050E00E94161369017A01CA01B901F4
:100680006C5F7F4F8F4F9F4F27E030E040E050E09E
:100690000E9416136F5F60936E03412C512C320140
:1006A00040E004E610E0C0E9D1E0242F30E02E5411
:1006B000384FF901E370FF273097F9F4C901B80109
:1006C0000E940213892B31F4C901BE010E9402135A
:1006D000892B99F48EE691E0A0E0B0E0480E591E17
:1006E0006A1E7B1ED301C201AA27BB27C816D906E2
:1006F000EA06FB0638F04F5FD8CF8DE691E0A0E028
:10070000B0E0ECCF40937103C90164E670E00E9451
:100710000213EC01C90160E971E00E9402133097F5
:1007200021F42097D9F40097C9F04DE651E060E03C
:1007300070E0441A550A660A770AC418D508E60814
:10074000F708AAEDB2E020E0213069F43097E9F52E
:10075000209711F40097C9F54DE106C04EE651E02F
:1007600060E070E0E6CF4C9150E070E060E031E096
:10077000320FC416D506E606F70640F0C41AD50AAD
:10078000E60AF70A1196232F3C30F1F62F5F2093EB
:100790007003C394C0926F038092720390927303AC
:1007A000A0927403B0927503DF91CF911F910F91C6
:1007B000FF90EF90DF90CF90BF90AF909F908F9081
:1007C0007F906F905F904F9008954CE1CDCF85ED75
:1007D0008093BC008091BC0084FDFCCF1092450347
:1007E000089520912103260F3327331F213231052D
:1007F000ECF420914503FC0190E080E0243069F0A6
:1008000082E00895A09121032191AC014F5F5C4FDC
:10081000A40FB52FB11D2C930196861798F38091E4
:100820002103680F6093210380E0089581E008951B
:1008300008958FEF9FEF08958FEF9FEF08958091B8
:10084000000390E09195819591090895CF93DF93EE
:10085000CB01EA01642F0E94F103CE01DF91CF9119
:100860000895CF93DF931F92CDB7DEB7698361E020
:10087000CE0101960E94F10381E090E00F90DF919C
:10088000CF91089590E080E00895CF92DF92EF92AB
:10089000FF920F931F93CF93DF9300D0CDB7DEB7B6
:1008A00069834A83880F991F00917A0410917B0411
:1008B000000F111FE4E2F4E09F012452344020179E
:1008C000310714F41192F8CF2981FC01EC5DFB4F44
:1008D00021838A81808360E0809178040E94EB010B
:1008E0001016110604F501501109F801EC5DFB4FDB
:1008F000E080D0907604C090740488E0F82E6E2DCD
:10090000661F6627661F8C2D0E94EB01EE0C61E0CE
:100910008D2D0E94EB0160E08D2D0E94EB01FA9479
:10092000F110EDCFDDCF61E0809178040F900F9052
:10093000DF91CF911F910F91FF90EF90DF90CF90BB
:100940000C94EB01EF92FF920F931F93CF937C01D6
:100950008C0183E0000F111F8A95E1F70C5C1B4F9F
:10096000C1E0F80111928F0140E06C2FC7010E9495
:100970004504CF5FC930A9F7CF911F910F91FF9028
:10098000EF90089520917A0430917B0482179307A9
:100990008CF46830710571F0FC0123E0EE0FFF1F4D
:1009A0002A95E1F7EC5DFB4FE60FF71F408B6F5F79
:1009B0000C9445040895FC0101900020E9F731975B
:1009C000AF01481B590BBC0187E893E00C948C00E5
:1009D0008F929F92AF92BF92CF92DF92EF92FF924F
:1009E0000F931F93CF93DF93CDB7DEB7A1970FB6C9
:1009F000F894DEBF0FBECDBF6C01990FEE08FF0863
:100A0000F7FE41C06DE287E893E00E942C018C0163
:100A100022273327A9012C193D094E095F0919A284
:100A2000CE0181967C019AE0892E912CA12CB12CCB
:100A3000CA01B901A50194010E941613605DF70176
:100A400062937F01211531054105510589F790E039
:100A500080E0309719F0CF010E94DB04800F911FD6
:100A6000A1960FB6F894DEBF0FBECDBFDF91CF9138
:100A70001F910F91FF90EF90DF90CF90BF90AF90BC
:100A80009F908F900895A701960119A28E010F5D86
:100A90001F4F8AE0C82ED12CE12CF12CCA01B901DC
:100AA000A70196010E941613605DF80162938F0101
:100AB000211531054105510589F790E080E0309717
:100AC00079F2CF010E94DB04CBCFEF92FF920F931C
:100AD0001F93CF93DF93CDB7DEB7C05ED1400FB683
:100AE000F894DEBF0FBECDBF88E0E2E0F1E0DE01AA
:100AF000119601900D928A95E1F788E0EAE0F1E025
:100B0000DE01199601900D928A95E1F788E0E2E105
:100B1000F1E0DE01519601900D928A95E1F788E0AF
:100B2000EAE1F1E0DE01599601900D928A95E1F734
:100B300088E0E2E2F1E0DE01919601900D928A9563
:100B4000E1F788E0EAE2F1E0DE01999601900D928A
:100B50008A95E1F788E0E2E3F1E0DE01D1960190C9
:100B60000D928A95E1F788E0EAE3F1E0DE01D9969B
:100B700001900D928A95E1F788E0E2E4F1E0DE0170
:100B8000AF5BBF4F01900D928A95E1F788E0EAE4F0
:100B9000F1E0DE01A75BBF4F01900D928A95E1F76E
:100BA00088E0E2E5F1E0DE01AF5ABF4F01900D921F
:100BB0008A95E1F788E0EAE5F1E0DE01A75ABF4F48
:100BC00001900D928A95E1F788E0E2E6F1E0DE011E
:100BD000AF59BF4F01900D928A95E1F788E0EAE6A0
:100BE000F1E0DE01A759BF4F01900D928A95E1F720
:100BF00088E0E2E7F1E0DE01AF58BF4F01900D92CF
:100C00008A95E1F788E0EAE7F1E0DE01A758BF4FF7
:100C100001900D928A95E1F788E0E2E8F1E0DE01CB
:100C2000AF57BF4F01900D928A95E1F788E0EAE84F
:100C3000F1E0DE01A757BF4F01900D928A95E1F7D1
:100C400088E0E2E9F1E0DE01AF56BF4F01900D927E
:100C50008A95E1F788E0EAE9F1E0DE01A756BF4FA7
:100C600001900D928A95E1F788E0E2EAF1E0DE0179
:100C7000AF55BF4F01900D928A95E1F788E0EAEAFF
:100C8000F1E0DE01A755BF4F01900D928A95E1F783
:100C900088E0E2EBF1E0DE01AF54BF4F01900D922E
:100CA0008A95E1F788E0EAEBF1E0DE01A754BF4F57
:100CB00001900D928A95E1F788E0E2ECF1E0DE0127
:100CC000AF53BF4F01900D928A95E1F788E0EAECAF
:100CD000F1E0DE01A753BF4F01900D928A95E1F735
:100CE00088E0E2EDF1E0DE01AF52BF4F01900D92DE
:100CF0008A95E1F788E0E2EDF1E0DE01A752BF4F0F
:100D000001900D928A95E1F788E0EAEDF1E0DE01CD
:100D1000AF51BF4F01900D928A95E1F788E0E2EE66
:100D2000F1E0DE01A751BF4F01900D928A95E1F7E6
:100D300088E0EAEEF1E0DE01AF50BF4F01900D9286
:100D40008A95E1F788E0E2EFF1E0DE01A750BF4FBE
:100D500001900D928A95E1F788E0EAEFF1E0DE017B
:100D6000AF5FBE4F01900D928A95E1F788E0E2E017
:100D7000F2E0DE01A75FBE4F01900D928A95E1F788
:100D800088E0EAE0F2E0DE01AF5EBE4F01900D9236
:100D90008A95E1F788E0E2E1F2E0DE01A75EBE4F6E
:100DA00001900D928A95E1F788E0EAE1F2E0DE0138
:100DB000AF5DBE4F01900D928A95E1F788E0E2E2C7
:100DC000F2E0DE01A75DBE4F01900D928A95E1F73A
:100DD00088E0EAE2F2E0DE01AF5CBE4F01900D92E6
:100DE0008A95E1F788E0E2E3F2E0DE01A75CBE4F1E
:100DF00001900D928A95E1F788E0EAE3F2E0DE01E6
:100E0000AF5BBE4F01900D928A95E1F788E0E2E476
:100E1000F2E0DE01A75BBE4F01900D928A95E1F7EB
:100E200088E0EAE4F2E0DE01AF5ABE4F01900D9295
:100E30008A95E1F788E0E2E5F2E0DE01A75ABE4FCD
:100E400001900D928A95E1F788E0EAE5F2E0DE0193
:100E5000AF59BE4F01900D928A95E1F788E0E2E626
:100E6000F2E0DE01A759BE4F01900D928A95E1F79D
:100E700088E0EAE6F2E0DE01AF58BE4F01900D9245
:100E80008A95E1F788E0E2E7F2E0DE01A758BE4F7D
:100E900001900D928A95E1F788E0EAE7F2E0DE0141
:100EA000AF57BE4F01900D928A95E1F788E0E2E8D6
:100EB000F2E0DE01A757BE4F01900D928A95E1F74F
:100EC00088E0EAE8F2E0DE01AF56BE4F01900D92F5
:100ED0008A95E1F788E0E2E9F2E0DE01A756BE4F2D
:100EE00001900D928A95E1F788E0EAE9F2E0DE01EF
:100EF000AF55BE4F01900D928A95E1F788E0E2EA86
:100F0000F2E0DE01A755BE4F01900D928A95E1F700
:100F100088E0EAEAF2E0DE01AF54BE4F01900D92A4
:100F20008A95E1F788E0E2EBF2E0DE01A754BE4FDC
:100F300001900D928A95E1F788E0EAEBF2E0DE019C
:100F4000AF53BE4F01900D928A95E1F788E0E2EC35
:100F5000F2E0DE01A753BE4F01900D928A95E1F7B2
:100F600088E0EAECF2E0DE01AF52BE4F01900D9254
:100F70008A95E1F788E0E2EDF2E0DE01A752BE4F8C
:100F800001900D928A95E1F787E00E94C2018C01E1
:100F900081E00115110509F480E08093010186E0EC
:100FA0000E94C20121E0009709F420E02093000193
:100FB000012BA1F44091760350917703609178035F
:100FC00070917903405F514F6F4F7F4F409376038D
:100FD000509377036093780370937903892B99F486
:100FE0008091760390917703A0917803B091790373
:100FF000CC96A11DB11D8093760390937703A093A7
:101000007803B09379030E94A2020E94EE028091BD
:101010006D038093FF020E94A2020E94EE02809163
:101020006C038093FE020E94A2020E94EE02809155
:101030006D0390E00E94E80488EF92E00E94DB04D8
:101040000E94A2020E94EE0280916C0390E00E9436
:10105000E80488EF92E00E94DB040E94A2020E9452
:10106000EE0280916B0390E00E94E8048AEF92E028
:101070000E94DB0460E070E0CB010E946F0280916F
:10108000FF02893118F088518093FF028091FF029E
:10109000811138C0CE0101967C0110E000E0F7011B
:1010A00041917F01B80190E080E00E94C2040F5F8F
:1010B0001F4F0830110599F78091FE0281111EC261
:1010C0008E010F5F1F4FF12CE12CF80141918F0130
:1010D000B70181E090E00E94C204FFEFEF1AFF0A1F
:1010E00088E0E816F10489F7C052DE4F0FB6F89495
:1010F000DEBF0FBECDBFDF91CF911F910F91FF904B
:10110000EF9008958130A1F47E01F9E0EF0EF11C1B
:1011100010E000E0F70141917F01B80190E080E02C
:101120000E94C2040F5F1F4F0830110599F7C4CF0A
:101130008230A1F47E01F1E1EF0EF11C10E000E03D
:10114000F70141917F01B80190E080E00E94C20464
:101150000F5F1F4F0830110599F7AECF8330A1F410
:101160007E01F9E1EF0EF11C10E000E0F701419182
:101170007F01B80190E080E00E94C2040F5F1F4F22
:101180000830110599F798CF8430A1F47E01F1E27F
:10119000EF0EF11C10E000E0F70141917F01B80172
:1011A00090E080E00E94C2040F5F1F4F08301105DD
:1011B00099F782CF8530A1F47E01F9E2EF0EF11CA0
:1011C00010E000E0F70141917F01B80190E080E07C
:1011D0000E94C2040F5F1F4F0830110599F76CCFB2
:1011E0008630A1F47E01F1E3EF0EF11C10E000E087
:1011F000F70141917F01B80190E080E00E94C204B4
:101200000F5F1F4F0830110599F756CF8730A1F4B3
:101210007E01F9E3EF0EF11C10E000E0F7014191CF
:101220007F01B80190E080E00E94C2040F5F1F4F71
:101230000830110599F740CF8830A1F47E01F1E420
:10124000EF0EF11C10E000E0F70141917F01B801C1
:1012500090E080E00E94C2040F5F1F4F083011052C
:1012600099F72ACF8930A1F4CE01875B9F4F7C018B
:1012700010E000E0F70141917F01B80190E080E0CB
:101280000E94C2040F5F1F4F0830110599F714CF59
:101290008A30A1F4CE018F5A9F4F7C0110E000E00C
:1012A000F70141917F01B80190E080E00E94C20403
:1012B0000F5F1F4F0830110599F7FECE8B30A1F458
:1012C000CE01875A9F4F7C0110E000E0F701419169
:1012D0007F01B80190E080E00E94C2040F5F1F4FC1
:1012E0000830110599F7E8CE8C30A1F4CE018F5962
:1012F0009F4F7C0110E000E0F70141917F01B801B0
:1013000090E080E00E94C2040F5F1F4F083011057B
:1013100099F7D2CE8D30A1F4CE0187599F4F7C0131
:1013200010E000E0F70141917F01B80190E080E01A
:101330000E94C2040F5F1F4F0830110599F7BCCE01
:101340008E30A1F4CE018F589F4F7C0110E000E059
:10135000F70141917F01B80190E080E00E94C20452
:101360000F5F1F4F0830110599F7A6CE8F30A1F4FB
:10137000CE0187589F4F7C0110E000E0F7014191BA
:101380007F01B80190E080E00E94C2040F5F1F4F10
:101390000830110599F790CE8031A1F4CE018F5716
:1013A0009F4F7C0110E000E0F70141917F01B801FF
:1013B00090E080E00E94C2040F5F1F4F08301105CB
:1013C00099F77ACE8131A1F4CE0187579F4F7C01E6
:1013D00010E000E0F70141917F01B80190E080E06A
:1013E0000E94C2040F5F1F4F0830110599F764CEA9
:1013F0008231A1F4CE018F569F4F7C0110E000E0B6
:10140000F70141917F01B80190E080E00E94C204A1
:101410000F5F1F4F0830110599F74ECE8331A1F4AD
:10142000CE0187569F4F7C0110E000E0F70141910B
:101430007F01B80190E080E00E94C2040F5F1F4F5F
:101440000830110599F738CE8431A9F48E010F5573
:101450001F4FF12CE12CF80141918F01B70190E071
:1014600080E00E94C204FFEFEF1AFF0A88E0E8164E
:10147000F10489F721CE8531A1F47E0199EAE90EC4
:10148000F11C10E000E0F70141917F01B80190E00C
:1014900080E00E94C2040F5F1F4F0830110599F7CA
:1014A0000BCE8631A1F47E01F1EBEF0EF11C10E0C2
:1014B00000E0F70141917F01B80190E080E00E94D7
:1014C000C2040F5F1F4F0830110599F7F5CD873122
:1014D00009F0F2CD7E01F9EBEF0EF11C10E000E017
:1014E000F70141917F01B80190E080E00E94C204C1
:1014F0000F5F1F4F0830110599F7DECD8130A1F441
:101500007E0199E0E90EF11C10E000E0F701419145
:101510007F01B80181E090E00E94C2040F5F1F4F7D
:101520000830110599F7E0CD8230A1F47E01F1E198
:10153000EF0EF11C10E000E0F70141917F01B801CE
:1015400081E090E00E94C2040F5F1F4F0830110538
:1015500099F7CACD8330A1F47E01F9E1EF0EF11CB9
:1015600010E000E0F70141917F01B80181E090E0D7
:101570000E94C2040F5F1F4F0830110599F7B4CDC8
:101580008430A1F47E01F1E2EF0EF11C10E000E0E6
:10159000F70141917F01B80181E090E00E94C2040F
:1015A0000F5F1F4F0830110599F79ECD8530A1F4CC
:1015B0007E01F9E2EF0EF11C10E000E0F70141912D
:1015C0007F01B80181E090E00E94C2040F5F1F4FCD
:1015D0000830110599F788CD8630A1F47E01F1E33A
:1015E000EF0EF11C10E000E0F70141917F01B8011E
:1015F00081E090E00E94C2040F5F1F4F0830110588
:1016000099F772CD8730A1F47E01F9E3EF0EF11C5A
:1016100010E000E0F70141917F01B80181E090E026
:101620000E94C2040F5F1F4F0830110599F75CCD6F
:101630008830A1F47E01F1E4EF0EF11C10E000E02F
:10164000F70141917F01B80181E090E00E94C2045E
:101650000F5F1F4F0830110599F746CD8930A9F467
:101660008E01075B1F4FF12CE12CF80141918F0196
:10167000B70181E090E00E94C204FFEFEF1AFF0A79
:1016800088E0E816F10489F72FCD8A30A9F48E019D
:101690000F5A1F4FF12CE12CF80141918F01B70136
:1016A00081E090E00E94C204FFEFEF1AFF0A88E099
:1016B000E816F10489F718CD8B30A9F48E01075A8A
:1016C0001F4FF12CE12CF80141918F01B70181E00E
:1016D00090E00E94C204FFEFEF1AFF0A88E0E816CC
:1016E000F10489F701CD8C30A9F48E010F591F4FF9
:1016F000F12CE12CF80141918F01B70181E090E0DC
:101700000E94C204FFEFEF1AFF0A88E0E816F10416
:1017100089F7EACC8D30A9F48E0107591F4FF12CBF
:10172000E12CF80141918F01B70181E090E00E9426
:10173000C204FFEFEF1AFF0A88E0E816F10489F708
:10174000D3CC8E30A9F48E010F581F4FF12CE12C11
:10175000F80141918F01B70181E090E00E94C2043D
:10176000FFEFEF1AFF0A88E0E816F10489F7BCCC16
:101770008F30A9F48E0107581F4FF12CE12CF8018E
:1017800041918F01B70181E090E00E94C204FFEF18
:10179000EF1AFF0A88E0E816F10489F7A5CC80313A
:1017A000A9F48E010F571F4FF12CE12CF801419144
:1017B0008F01B70181E090E00E94C204FFEFEF1AB1
:1017C000FF0A88E0E816F10489F78ECC8131A9F48C
:1017D0008E0107571F4FF12CE12CF80141918F0129
:1017E000B70181E090E00E94C204FFEFEF1AFF0A08
:1017F00088E0E816F10489F777CC8231A9F48E01EC
:101800000F561F4FF12CE12CF80141918F01B701C8
:1018100081E090E00E94C204FFEFEF1AFF0A88E027
:10182000E816F10489F760CC8331A9F48E010756DC
:101830001F4FF12CE12CF80141918F01B70181E09C
:1018400090E00E94C204FFEFEF1AFF0A88E0E8165A
:10185000F10489F749CC8431A1F47E0191EAE90EC3
:10186000F11C10E000E0F70141917F01B80181E037
:1018700090E00E94C2040F5F1F4F0830110599F7D6
:1018800033CC8531A1F47E01F9EAEF0EF11C10E0B2
:1018900000E0F70141917F01B80181E090E00E94F2
:1018A000C2040F5F1F4F0830110599F71DCC863118
:1018B000A1F47E01F1EBEF0EF11C10E000E0F70166
:1018C00041917F01B80181E090E00E94C2040F5F66
:1018D0001F4F0830110599F707CC8731A1F47E011D
:1018E000F9EBEF0EF11C10E000E0F70141917F01F0
:1018F000B80181E090E00E94C2040F5F1F4F0830E2
:10190000110599F7F1CB8831A1F47E01F1ECEF0ECE
:10191000F11C10E000E0F70141917F01B80181E086
:1019200090E00E94C2040F5F1F4F0830110599F725
:10193000DBCB8931A1F47E01F9ECEF0EF11C10E054
:1019400000E0F70141917F01B80181E090E00E9441
:10195000C2040F5F1F4F0830110599F7C5CB8A31BC
:10196000A1F47E01F1EDEF0EF11C10E000E0F701B3
:1019700041917F01B80181E090E00E94C2040F5FB5
:101980001F4F0830110599F7AFCB8B31A1F47E01C1
:10199000F9EDEF0EF11C10E000E0F70141917F013D
:1019A000B80181E090E00E94C2040F5F1F4F083031
:1019B000110599F799CB8C31A1F47E01F1EEEF0E70
:1019C000F11C10E000E0F70141917F01B80181E0D6
:1019D00090E00E94C2040F5F1F4F0830110599F775
:1019E00083CB8D31A1F47E01F9EEEF0EF11C10E0F6
:1019F00000E0F70141917F01B80181E090E00E9491
:101A0000C2040F5F1F4F0830110599F76DCB8E315F
:101A1000A1F47E01F1EFEF0EF11C10E000E0F70100
:101A200041917F01B80181E090E00E94C2040F5F04
:101A30001F4F0830110599F757CB8F31A1F47E0164
:101A4000F9EFEF0EF11C10E000E0F70141917F018A
:101A5000B80181E090E00E94C2040F5F1F4F083080
:101A6000110599F741CB8032A1F47E01F1E0EF0E30
:101A7000FF1E10E000E0F70141917F01B80181E015
:101A800090E00E94C2040F5F1F4F0830110599F7C4
:101A90002BCB8132A9F47E01F7EFEF1AFEEFFF0A9C
:101AA00010E000E0F70141917F01B80181E090E092
:101AB0000E94C2040F5F1F4F0830110599F714CB25
:101AC0008232A9F47E01FFEEEF1AFEEFFF0A10E06A
:101AD00000E0F70141917F01B80181E090E00E94B0
:101AE000C2040F5F1F4F0830110599F7FDCA8332FA
:101AF000A9F47E01F7EEEF1AFEEFFF0A10E000E016
:101B0000F70141917F01B80181E090E00E94C20499
:101B10000F5F1F4F0830110599F7E6CA8432A9F408
:101B20007E01FFEDEF1AFEEFFF0A10E000E0F70183
:101B300041917F01B80181E090E00E94C2040F5FF3
:101B40001F4F0830110599F7CFCA8532A9F47E01DD
:101B5000F7EDEF1AFEEFFF0A10E000E0F701419108
:101B60007F01B80181E090E00E94C2040F5F1F4F27
:101B70000830110599F7B8CA8632A9F47E01FFEC46
:101B8000EF1AFEEFFF0A10E000E0F70141917F013C
:101B9000B80181E090E00E94C2040F5F1F4F08303F
:101BA000110599F7A1CA8732A9F47E01F7ECEF1A63
:101BB000FEEFFF0A10E000E0F70141917F01B8015C
:101BC00081E090E00E94C2040F5F1F4F08301105B2
:101BD00099F78ACA8832A9F47E01FFEBEF1AFEEF6B
:101BE000FF0A10E000E0F70141917F01B80181E0B8
:101BF00090E00E94C2040F5F1F4F0830110599F753
:101C000073CA8932A9F47E01F7EBEF1AFEEFFF0ADF
:101C100010E000E0F70141917F01B80181E090E020
:101C20000E94C2040F5F1F4F0830110599F75CCA6C
:101C30008A32A9F47E01FFEAEF1AFEEFFF0A10E0F4
:101C400000E0F70141917F01B80181E090E00E943E
:101C5000C2040F5F1F4F0830110599F745CA8B3238
:101C6000A9F47E01F7EAEF1AFEEFFF0A10E000E0A8
:101C7000F70141917F01B80181E090E00E94C20428
:101C80000F5F1F4F0830110599F72ECA8C32A9F447
:101C90007E01FFE9EF1AFEEFFF0A10E000E0F70116
:101CA00041917F01B80181E090E00E94C2040F5F82
:101CB0001F4F0830110599F717CA8D32A9F47E011C
:101CC000F7E9EF1AFEEFFF0A10E000E0F70141919B
:101CD0007F01B80181E090E00E94C2040F5F1F4FB6
:101CE0000830110599F700CA8E32A9F47E01FFE889
:101CF000EF1AFEEFFF0A10E000E0F70141917F01CB
:101D0000B80181E090E00E94C2040F5F1F4F0830CD
:101D1000110599F7E9C98F32A9F47E01F7E8EF1AA6
:101D2000FEEFFF0A10E000E0F70141917F01B801EA
:101D300081E090E00E94C2040F5F1F4F0830110540
:101D400099F7D2C98033A9F47E01FFE7EF1AFEEFBD
:101D5000FF0A10E000E0F70141917F01B80181E046
:101D600090E00E94C2040F5F1F4F0830110599F7E1
:101D7000BBC98133A9F47E01F7E7EF1AFEEFFF0A32
:101D800010E000E0F70141917F01B80181E090E0AF
:101D90000E94C2040F5F1F4F0830110599F7A4C9B4
:101DA0008233A9F47E01FFE6EF1AFEEFFF0A10E08E
:101DB00000E0F70141917F01B80181E090E00E94CD
:101DC000C2040F5F1F4F0830110599F78DC9833387
:101DD000A9F47E01F7E6EF1AFEEFFF0A10E000E03B
:101DE000F70141917F01B80181E090E00E94C204B7
:101DF0000F5F1F4F0830110599F776C98433A9F496
:101E00007E01FFE5EF1AFEEFFF0A10E000E0F701A8
:101E100041917F01B80181E090E00E94C2040F5F10
:101E20001F4F0830110599F75FC98533A9F47E016A
:101E3000F7E5EF1AFEEFFF0A10E000E0F70141912D
:101E40007F01B80181E090E00E94C2040F5F1F4F44
:101E50000830110599F748C98633A9F47E01FFE4DB
:101E6000EF1AFEEFFF0A10E000E0F70141917F0159
:101E7000B80181E090E00E94C2040F5F1F4F08305C
:101E8000110599F731C98733A9F47E01F7E4EF1AF8
:101E9000FEEFFF0A10E000E0F70141917F01B80179
:101EA00081E090E00E94C2040F5F1F4F08301105CF
:101EB00099F71AC98833A9F47E01FFE3EF1AFEEF00
:101EC000FF0A10E000E0F70141917F01B80181E0D5
:101ED00090E00E94C2040F5F1F4F0830110599F770
:101EE00003C98933A9F47E01F7E3EF1AFEEFFF0A75
:101EF00010E000E0F70141917F01B80181E090E03E
:101F00000E94C2040F5F1F4F0830110599F7ECC8FB
:101F10008A33A9F47E01FFE2EF1AFEEFFF0A10E018
:101F200000E0F70141917F01B80181E090E00E945B
:101F3000C2040F5F1F4F0830110599F7D5C88B33C6
:101F400009F0D2C87E01F7E2EF1AFEEFFF0A10E0B7
:101F500000E0F70141917F01B80181E090E00E942B
:101F6000C2040F5F1F4F0830110599F7BDC81F92BB
:101F70000F920FB60F9211242F933F934F935F93BD
:101F80006F937F938F939F93AF93BF93EF93FF9341
:101F900087E893E00E940A01FF91EF91BF91AF9112
:101FA0009F918F917F916F915F914F913F912F9171
:101FB0000F900FBE0F901F9018951F920F920FB6A3
:101FC0000F9211242F938F939F93EF93FF93E091A0
:101FD0009703F09198038081E0919D03F0919E0317
:101FE00082FD1BC090818091A0038F5F8F73209131
:101FF000A103821741F0E091A003F0E0E957FC4F04
:10200000958F8093A003FF91EF919F918F912F91D6
:102010000F900FBE0F901F9018958081F4CF1F92E4
:102020000F920FB60F9211242F933F938F939F938C
:10203000AF93BF9380917F0390918003A091810320
:10204000B091820330917E0323E0230F2D3758F5A2
:102050000196A11DB11D20937E0380937F03909371
:102060008003A0938103B0938203809183039091B6
:102070008403A0918503B09186030196A11DB11D33
:102080008093830390938403A0938503B093860386
:10209000BF91AF919F918F913F912F910F900FBE64
:1020A0000F901F90189526E8230F0296A11DB11DD1
:1020B000D2CF1F920F920FB60F9211242F933F93FE
:1020C0004F935F936F937F938F939F93AF93BF9340
:1020D000EF93FF938091B900887F803609F44AC05E
:1020E000F0F5883209F4A5C018F5803109F499C0DB
:1020F000B8F4882309F4F5C0883009F492C0FF9140
:10210000EF91BF91AF919F918F917F916F915F916F
:102110004F913F912F910F900FBE0F901F901895E8
:10212000883109F486C0803251F78093440314C08B
:10213000803409F49BC040F48033B9F38833F9F656
:102140008093440385ECAEC0803509F483C08835A4
:1021500009F494C0883499F60E94E703D0CF8839F7
:1021600009F48AC038F5883729F050F4883611F020
:10217000803729F683E0809345031092430355C0CE
:10218000883809F479C0803919F0803809F0B7CF60
:1021900080914303803208F06FC0E091430381E0F7
:1021A0008E0F809343038091BB00F0E0ED5DFC4F08
:1021B00080833BC0803B39F0D0F4803A09F477C08B
:1021C000883A09F09CCF84E0809345031092220363
:1021D00010922103F0E0E0E0099580912103811144
:1021E0000FC081E0809321031092010309C0803C5D
:1021F00009F4A8CF883C09F4A5CF883B09F07FCF2C
:10220000E091220381E08E0F80932203F0E0EF5FE4
:10221000FC4F80818093BB00909122038091210329
:1022200029C080916A038093BB0085EC8093BC0039
:1022300066CF9091690380916803981758F5E091F3
:10224000690381E08E0F80936903F0E0E85BFC4F47
:102250008081E9CFE091690381E08E0F809369036B
:102260008091BB00F0E0E85BFC4F808390916903B4
:10227000809168039817C8F285E8D8CFE091690388
:1022800081E08E0F809369038091BB00F0E0E85BF2
:10229000FC4F80838091470381115ECF81E0809362
:1022A000460384EA8093BC001092450328CF85EC56
:1022B0008093BC001092450380914303803230F438
:1022C000E0914303F0E0ED5DFC4F10826091430329
:1022D00070E083E293E0F0E0E0E0099510924303C0
:1022E0000ECF1092440338CFCF93DF9310928A031E
:1022F0001092890388EE93E0A0E0B0E080938B0316
:1023000090938C03A0938D03B0938E038AEE92E09A
:10231000909388038093870385EC90E090939403D7
:102320008093930384EC90E09093960380939503BD
:1023300080EC90E0909398038093970381EC90E079
:1023400090939A038093990382EC90E090939C037E
:1023500080939B0386EC90E090939E0380939D0373
:102360001092A0031092A1031092A2031092A30353
:10237000CCE0D0E0D0937504C09374048AE090E080
:1023800090937704809376048BE090E090937904A7
:102390008093780482E090E090937B0480937A04A9
:1023A00061E08CE00E94190261E0809176040E9455
:1023B000190261E0809178040E94190261E0809125
:1023C00078040E94EB01D0937504C0937404E4E395
:1023D000F4E0119284E0E437F807D9F7D0E0C0E0E8
:1023E00080917A0490917B04C817D90774F540E076
:1023F0006FE0CE010E94450480917A0490917B04A5
:10240000C817D9072CF447E06BE0CE010E944504C1
:1024100040E069E0CE010E94450480917A049091E9
:102420007B04C817D9071CF4CE010E94A204809136
:102430007A0490917B04C817D9072CF440E06CE033
:10244000CE010E9445042196CBCFDF91CF91089514
:10245000789484B5826084BD84B5816084BD85B57F
:10246000826085BD85B5816085BD80916E0081608B
:1024700080936E0010928100809181008260809331
:102480008100809181008160809381008091800033
:102490008160809380008091B10084608093B1005E
:1024A0008091B00081608093B00080917A00846058
:1024B00080937A0080917A00826080937A00809184
:1024C0007A00816080937A0080917A00806880939E
:1024D0007A001092C10080917A0490917B041816C2
:1024E000190634F441E06CE090E080E00E9445047D
:1024F00080917A0490917B041816190634F442E016
:102500006AE090E080E00E94450480917A04909116
:102510007B041816190624F490E080E00E94A204BF
:1025200080917A0490917B04029734F041E06CE052
:1025300081E090E00E94450480917A0490917B04B0
:10254000029734F042E06AE081E090E00E944504A6
:1025500080917A0490917B04029724F081E090E0CE
:102560000E94A204E0919703F091980382E0808397
:10257000E0919303F09194031082E0919503F09120
:1025800096038FEC808310929F03E0919B03F09160
:102590009C0386E08083E0919903F0919A03808107
:1025A00080618083E0919903F0919A038081886033
:1025B0008083E0919903F0919A0380818068808301
:1025C000E0919903F0919A0380818F7D808362E08E
:1025D00087E00E94190262E086E00E941902C0E0D2
:1025E000D0E00E94650568EE73E080E090E00E9414
:1025F0006F022097B1F30E94F600882391F30E94A6
:102600000000EFCF97FB072E16F4009407D077FD5C
:1026100009D00E94381307FC05D03EF490958195AF
:102620009F4F0895709561957F4F0895A1E21A2EEE
:10263000AA1BBB1BFD010DC0AA1FBB1FEE1FFF1F66
:10264000A217B307E407F50720F0A21BB30BE40BB6
:10265000F50B661F771F881F991F1A9469F76095FD
:102660007095809590959B01AC01BD01CF010895B7
:10267000AA1BBB1B51E107C0AA1FBB1FA617B707A8
:1026800010F0A61BB70B881F991F5A95A9F78095C4
:102690009095BC01CD010895EE0FFF1F0590F491B8
:0826A000E02D0994F894FFCF2E
:1026A8000101007C447C007C447C007C447C00006C
:1026B8007C00007C447C0074545C007C447C0044B6
:1026C800547C007C447C001C1078007C447C005CBA
:1026D8005474007C447C007C5474007C447C00046A
:1026E800047C007C447C007C547C007C447C005C42
:1026F800547C007C007C447C0000007C00007C0052
:102708000000007C0074545C0000007C0044547C91
:102718000000007C001C10780000007C005C5474F1
:102728000000007C007C54740000007C0004047CE1
:102738000000007C007C547C0000007C005C547C21
:1027480000000074545C007C447C0074545C0000FD
:102758007C000074545C0074545C0074545C004445
:10276800547C0074545C001C10780074545C005C49
:1027780054740074545C007C54740074545C007C81
:10278800547C0074545C005C547C0044547C007C91
:10279800447C0044547C00007C000044547C007459
:1027A800545C0044547C0044547C0044547C001C19
:1027B80010780044547C005C54740044547C007CC1
:1027C80054740044547C0004047C0044547C007C11
:1027D800547C0044547C005C547C001C1078007CC1
:1027E800447C001C107800007C00001C10780074E9
:1027F800545C001C10780044547C001C1078001CA9
:102808001078001C1078005C5474001C1078007C50
:102818005474001C10780004047C001C1078007CA0
:10282800547C001C1078005C547C005C5474007C60
:10283800447C005C547400007C00005C5474007498
:10284800545C005C54740044547C005C5474001C58
:102858001078005C5474005C5474005C5474007C00
:102868005474005C54740004047C005C5474007C50
:10287800547C005C5474005C547C1F1C1F1E1F1E7B
:102888001F1F1E1F1E1F000000002C018C00B90016
:0E2898007901EA00C800DC003A000D0A0000D9
:107E0000112484B714BE81FFF0D085E080938100F7
:107E100082E08093C00088E18093C10086E0809377
:107E2000C20080E18093C4008EE0C9D0259A86E02C
:107E300020E33CEF91E0309385002093840096BBD3
:107E4000B09BFECF1D9AA8958150A9F7CC24DD24C4
:107E500088248394B5E0AB2EA1E19A2EF3E0BF2EE7
:107E6000A2D0813461F49FD0082FAFD0023811F036
:107E7000013811F484E001C083E08DD089C08234E0
:107E800011F484E103C0853419F485E0A6D080C0E4
:107E9000853579F488D0E82EFF2485D0082F10E0AE
:107EA000102F00270E291F29000F111F8ED06801E7
:107EB0006FC0863521F484E090D080E0DECF843638
:107EC00009F040C070D06FD0082F6DD080E0C81688
:107ED00080E7D80618F4F601B7BEE895C0E0D1E017
:107EE00062D089930C17E1F7F0E0CF16F0E7DF06D8
:107EF00018F0F601B7BEE89568D007B600FCFDCFD4
:107F0000A601A0E0B1E02C9130E011968C91119780
:107F100090E0982F8827822B932B1296FA010C0160
:107F200087BEE89511244E5F5F4FF1E0A038BF0790
:107F300051F7F601A7BEE89507B600FCFDCF97BE46
:107F4000E89526C08437B1F42ED02DD0F82E2BD052
:107F50003CD0F601EF2C8F010F5F1F4F84911BD097
:107F6000EA94F801C1F70894C11CD11CFA94CF0C13
:107F7000D11C0EC0853739F428D08EE10CD085E9AC
:107F80000AD08FE07ACF813511F488E018D01DD067
:107F900080E101D065CF982F8091C00085FFFCCF94
:107FA0009093C60008958091C00087FFFCCF809118
:107FB000C00084FD01C0A8958091C6000895E0E648
:107FC000F0E098E1908380830895EDDF803219F02E
:107FD00088E0F5DFFFCF84E1DECF1F93182FE3DFCA
:107FE0001150E9F7F2DF1F91089580E0E8DFEE27F6
:047FF000FF270994CA
:027FFE00040479
:0400000300007E007B
:00000001FF
