:100000000C945C000C9479000C9479000C947900A9
:100010000C9479000C9479000C9479000C9479007C
:100020000C9479000C9479000C9479000C9479006C
:100030000C9479000C9479000C9479000C9479005C
:100040000C94C7000C9479000C9479000C947900FE
:100050000C9479000C9479000C9479000C9479003C
:100060000C9479000C947900000000080002010053
:100070000003040700000000000000000000000072
:10008000250028002B0000000000240027002A0083
:10009000040404040404040402020202020203032E
:1000A0000303030301020408102040800102040836
:1000B000102001020408102011241FBECFEFD8E049
:1000C000DEBFCDBF11E0A0E0B1E0E8E3F4E002C0A4
:1000D00005900D92AE30B107D9F721E0AEE0B1E066
:1000E00001C01D92AD31B207E1F70E9411010C94DD
:1000F0001A020C94000090E0FC01E859FF4F349183
:10010000FC01EC55FF4F2491FC01E057FF4FE491B7
:10011000EE2309F43BC0332339F1333091F038F446
:100120003130A9F0323001F584B58F7D12C03730FF
:1001300091F03830A1F03430B9F4809180008F7D97
:1001400003C0809180008F77809380000DC084B5BC
:100150008F7784BD09C08091B0008F7703C08091F4
:10016000B0008F7D8093B000F0E0EE0FFF1FE458E9
:10017000FF4FA591B4918FB7F894EC91611103C032
:1001800020952E2301C02E2B2C938FBF08951F92F4
:100190000F920FB60F9211242F933F938F939F933B
:1001A000AF93BF938091130190911401A091150119
:1001B000B09116013091120123E0230F2D3720F466
:1001C0000196A11DB11D05C026E8230F0296A11DB1
:1001D000B11D209312018093130190931401A093F9
:1001E0001501B093160180910E0190910F01A0911D
:1001F0001001B09111010196A11DB11D80930E0156
:1002000090930F01A0931001B0931101BF91AF9192
:100210009F918F913F912F910F900FBE0F901F9044
:100220001895789484B5826084BD84B5816084BD5E
:1002300085B5826085BD85B5816085BD80916E0084
:10024000816080936E0010928100809181008260B5
:1002500080938100809181008160809381008091F2
:1002600080008160809380008091B10084608093E1
:10027000B1008091B00081608093B00080917A00DD
:10028000846080937A0080917A00826080937A0003
:1002900080917A00816080937A0080917A008068F2
:1002A00080937A001092C100A4E0B1E08D9190E0BB
:1002B000FC01EC55FF4F2491FC01E057FF4F849166
:1002C000882399F090E0880F991FFC01EA57FF4FAF
:1002D000C591D491FC01E458FF4F859194918FB75B
:1002E000F894E881E22BE8838FBF81E0AE30B80755
:1002F000E9F62FB7F8948091130190911401A09121
:100300001501B09116012FBF8093190190931A0126
:10031000A0931B01B0931C0192E4B92EC0E0D0E081
:1003200001E010E0EE24EA94FE2C8FB7F89440919F
:1003300013015091140160911501709116018FBF46
:100340008091190190911A01A0911B01B0911C019B
:10035000481B590B6A0B7B0B8091020190910301A2
:10036000092E000CAA0BBB0B84179507A607B7072D
:1003700008F05AC0B0927C0080917A00806480932B
:100380007A0080917A0086FDFCCF809178002091E0
:10039000790090E0922B909303018093020184E016
:1003A000C82E81E0D82E60E0F60181916F010E9495
:1003B0007B00FEE0CF16F1E0DF06A9F7C090170141
:1003C000D0901801F601EC5FFE4F61E080810E9441
:1003D0007B0080910001909101018C0D9D1D9093F7
:1003E0001801809317018930910529F4F0920101D9
:1003F000E092000106C0892B21F4109301010093C3
:1004000000012FB7F8948091130190911401A091ED
:100410001501B09116012FBF8093190190931A0115
:10042000A0931B01B0931C01209709F47ECF0E947A
:0804300000007BCFF894FFCF20
:0E04380001004100030405060708090A0B0C29
:00000001FF
