:100000000C945C000C946E000C946E000C946E00CA
:100010000C946E000C946E000C946E000C946E00A8
:100020000C946E000C946E000C946E000C946E0098
:100030000C946E000C946E000C946E000C946E0088
:100040000C941B010C946E000C946E000C946E00CA
:100050000C946E000C946E000C946E000C946E0068
:100060000C946E000C946E00000000080002010069
:100070000003040700000000000000000000000072
:10008000250028002B0000000000240027002A0083
:10009000040404040404040402020202020203032E
:1000A0000303030301020408102040800102040836
:1000B000102001020408102011241FBECFEFD8E049
:1000C000DEBFCDBF21E0A0E0B1E001C01D92A930AC
:1000D000B207E1F70E9484010C946D1A0C940000A1
:1000E0003FB7F8948091050190910601A091070116
:1000F000B091080126B5A89B05C02F3F19F00196C5
:10010000A11DB11D3FBFBA2FA92F982F8827820F9D
:10011000911DA11DB11DBC01CD0142E0660F771FED
:10012000881F991F4A95D1F7089590E0FC01E8597E
:10013000FF4F3491FC01EC55FF4F2491FC01E05737
:10014000FF4FE491EE2309F43BC0332339F1333000
:1001500091F038F43130A9F0323001F584B58F7D5B
:1001600012C0373091F03830A1F03430B9F48091BA
:1001700080008F7D03C0809180008F778093800006
:100180000DC084B58F7784BD09C08091B0008F7792
:1001900003C08091B0008F7D8093B000F0E0EE0F3F
:1001A000FF1FE458FF4FA591B4918FB7F894EC91DD
:1001B000611103C020952E2301C02E2B2C938FBFDD
:1001C00008958F929F92AF92BF92CF92DF92EF925B
:1001D000FF926B017C010E9470004B015C01C11415
:1001E000D104E104F104F1F00E947000DC01CB01C4
:1001F00088199909AA09BB09883E9340A105B10550
:1002000070F321E0C21AD108E108F10888EE880EE7
:1002100083E0981EA11CB11CC114D104E104F104B7
:1002200019F7DDCFFF90EF90DF90CF90BF90AF90A8
:100230009F908F9008951F920F920FB60F921124E6
:100240002F933F938F939F93AF93BF93809101011F
:1002500090910201A0910301B0910401309100013D
:1002600023E0230F2D3720F40196A11DB11D05C0F9
:1002700026E8230F0296A11DB11D20930001809353
:10028000010190930201A0930301B09304018091B6
:10029000050190910601A0910701B0910801019616
:1002A000A11DB11D8093050190930601A093070144
:1002B000B0930801BF91AF919F918F913F912F9182
:1002C0000F900FBE0F901F90189590E0FC01EC5519
:1002D000FF4F2491FC01E057FF4F8491882399F050
:1002E00090E0880F991FFC01EA57FF4FA591B49148
:1002F000FC01E458FF4F859194918FB7F894EC91ED
:10030000E22BEC938FBF0895789484B5826084BD0E
:1003100084B5816084BD85B5826085BD85B5816009
:1003200085BD80916E00816080936E001092810087
:100330008091810082608093810080918100816042
:100340008093810080918000816080938000809103
:10035000B10084608093B1008091B000816080938F
:10036000B00080917A00846080937A0080917A0056
:10037000826080937A0080917A00816080937A0015
:1003800080917A00806880937A001092C10082E0A8
:100390000E94650183E00E94650184E00E9465017E
:1003A00085E00E94650186E00E94650187E00E9469
:1003B000650188E00E94650189E00E9465018AE08C
:1003C0000E9465018BE00E94650100E010E0C4E03E
:1003D000D0E061E082E00E94950064E670E080E099
:1003E00090E00E94E10060E082E00E94950061E000
:1003F00083E00E94950064E670E080E090E00E9457
:10040000E10060E083E00E94950061E084E00E94EA
:10041000950064E670E080E090E00E94E10060E01A
:1004200084E00E94950061E085E00E94950064E60A
:1004300070E080E090E00E94E10060E085E00E94D2
:10044000950061E086E00E94950064E670E080E03F
:1004500090E00E94E10060E086E00E94950061E08B
:1004600087E00E94950064E670E080E090E00E94E2
:10047000E10060E087E00E94950061E088E00E9472
:10048000950064E670E080E090E00E94E10060E0AA
:1004900088E00E94950061E089E00E94950064E692
:1004A00070E080E090E00E94E10060E089E00E945E
:1004B000950061E08AE00E94950064E670E080E0CB
:1004C00090E00E94E10060E08AE00E94950061E017
:1004D0008BE00E94950064E670E080E090E00E946E
:1004E000E10060E08BE00E94950061E08AE00E94FC
:1004F000950064E670E080E090E00E94E10060E03A
:100500008AE00E94950061E089E00E94950064E61F
:1005100070E080E090E00E94E10060E089E00E94ED
:10052000950061E088E00E94950064E670E080E05C
:1005300090E00E94E10060E088E00E94950061E0A8
:1005400087E00E94950064E670E080E090E00E9401
:10055000E10060E087E00E94950061E086E00E9493
:10056000950064E670E080E090E00E94E10060E0C9
:1005700086E00E94950061E085E00E94950064E6B7
:1005800070E080E090E00E94E10060E085E00E9481
:10059000950061E084E00E94950064E670E080E0F0
:1005A00090E00E94E10060E084E00E94950061E03C
:1005B00083E00E94950064E670E080E090E00E9495
:1005C000E10060E083E00E949500219709F001CFEF
:1005D000CBE1D0E061E082E00E94950063E270E050
:1005E00080E090E00E94E10060E082E00E949500DF
:1005F00061E083E00E94950063E270E080E090E0BB
:100600000E94E10060E083E00E94950061E084E0E8
:100610000E94950063E270E080E090E00E94E100BB
:1006200060E084E00E94950061E085E00E94950012
:1006300063E270E080E090E00E94E10060E085E02D
:100640000E94950061E086E00E94950063E270E000
:1006500080E090E00E94E10060E086E00E9495006A
:1006600061E087E00E94950063E270E080E090E046
:100670000E94E10060E087E00E94950061E088E070
:100680000E94950063E270E080E090E00E94E1004B
:1006900060E088E00E94950061E089E00E9495009A
:1006A00063E270E080E090E00E94E10060E089E0B9
:1006B0000E94950061E08AE00E94950063E270E08C
:1006C00080E090E00E94E10060E08AE00E949500F6
:1006D00061E08BE00E94950063E270E080E090E0D2
:1006E0000E94E10060E08BE00E949500219709F0F4
:1006F00071CFCFE0D0E061E082E00E94950061E040
:1007000084E00E94950061E086E00E94950061E02F
:1007100088E00E94950061E08AE00E94950060E018
:1007200083E00E94950060E085E00E94950060E013
:1007300087E00E94950060E089E00E94950060E0FB
:100740008BE00E94950068EC70E080E090E00E94F1
:10075000E10060E082E00E94950060E084E00E9499
:10076000950060E086E00E94950060E088E00E94CD
:10077000950060E08AE00E94950061E083E00E94BD
:10078000950061E085E00E94950061E087E00E94AD
:10079000950061E089E00E94950061E08BE00E9495
:1007A000950068EC70E080E090E00E94E100219705
:1007B00009F0A1CF60E083E00E94950060E085E051
:1007C0000E94950060E087E00E94950060E089E06B
:1007D0000E94950060E08BE00E94950064E670E066
:1007E00080E090E00E94E100C4E0D0E061E082E0BF
:1007F0000E94950064E670E080E090E00E94E100D5
:1008000061E083E00E94950064E670E080E090E0A3
:100810000E94E10061E084E00E94950064E670E0DF
:1008200080E090E00E94E10061E085E00E94950098
:1008300064E670E080E090E00E94E10061E086E024
:100840000E94950064E670E080E090E00E94E10084
:1008500061E087E00E94950064E670E080E090E04F
:100860000E94E10061E088E00E94950064E670E08B
:1008700080E090E00E94E10061E089E00E94950044
:1008800064E670E080E090E00E94E10061E08AE0D0
:100890000E94950064E670E080E090E00E94E10034
:1008A00061E08BE00E94950064E670E080E090E0FB
:1008B0000E94E10060E08BE00E94950064E670E039
:1008C00080E090E00E94E10060E08AE00E949500F4
:1008D00064E670E080E090E00E94E10060E089E082
:1008E0000E94950064E670E080E090E00E94E100E4
:1008F00060E088E00E94950064E670E080E090E0AF
:100900000E94E10060E087E00E94950064E670E0EC
:1009100080E090E00E94E10060E086E00E949500A7
:1009200064E670E080E090E00E94E10060E085E035
:100930000E94950064E670E080E090E00E94E10093
:1009400060E084E00E94950064E670E080E090E062
:100950000E94E10060E083E00E94950064E670E0A0
:1009600080E090E00E94E10060E082E00E9495005B
:1009700068EC70E080E090E00E94E100219709F0CF
:1009800035CF97E0E92EF12CC6E0D0E061E087E0BA
:100990000E94950061E088E00E94950061E089E096
:1009A0000E94950061E08AE00E94950061E08BE082
:1009B0000E9495006CE370E080E090E00E94E1000E
:1009C00060E087E00E94950060E088E00E9495006A
:1009D00060E089E00E94950060E08AE00E94950056
:1009E00060E08BE00E9495006CE370E080E090E0B6
:1009F0000E94E100219751F6C6E0D0E061E082E07C
:100A00000E94950061E083E00E94950061E084E02F
:100A10000E94950061E085E00E94950061E086E01B
:100A20000E9495006CE370E080E090E00E94E1009D
:100A300060E082E00E94950060E083E00E94950003
:100A400060E084E00E94950060E085E00E949500EF
:100A500060E086E00E9495006CE370E080E090E04A
:100A60000E94E100219751F681E0E81AF10809F0AF
:100A70008BCFCEE1D0E061E082E00E94950061E0A2
:100A800087E00E94950062E370E080E090E00E94C1
:100A9000E10060E082E00E94950060E087E00E9453
:100AA000950061E083E00E94950061E088E00E948B
:100AB000950062E370E080E090E00E94E10060E079
:100AC00083E00E94950060E088E00E94950061E06C
:100AD00084E00E94950061E089E00E94950062E355
:100AE00070E080E090E00E94E10060E084E00E941D
:100AF000950060E089E00E94950061E085E00E9439
:100B0000950061E08AE00E94950062E370E080E079
:100B100090E00E94E10060E085E00E94950060E0C6
:100B20008AE00E94950061E086E00E94950061E005
:100B30008BE00E94950062E370E080E090E00E940C
:100B4000E10060E086E00E94950060E08BE00E949A
:100B50009500219709F08FCF88E0E82EF12CC6E0B0
:100B6000D0E061E082E00E94950061E083E00E94B5
:100B7000950061E084E00E94950061E085E00E94BC
:100B8000950061E086E00E94950061E087E00E94A8
:100B9000950061E088E00E94950061E089E00E9494
:100BA000950061E08AE00E94950061E08BE00E9480
:100BB000950067E370E080E090E00E94E10060E073
:100BC00082E00E94950060E083E00E94950060E072
:100BD00084E00E94950060E085E00E94950060E05E
:100BE00086E00E94950060E087E00E94950060E04A
:100BF00088E00E94950060E089E00E94950060E036
:100C00008AE00E94950060E08BE00E94950067E317
:100C100070E080E090E00E94E100219709F0A1CF10
:100C20006CE271E080E090E00E94E10081E0E81A6F
:100C3000F10809F094CFC7E0D0E061E082E00E94C3
:100C400095006AE570E080E090E00E94E10060E0DD
:100C500082E00E94950061E084E00E9495006AE5D0
:100C600070E080E090E00E94E10060E084E00E949B
:100C7000950061E083E00E9495006AE570E080E005
:100C800090E00E94E10060E083E00E94950061E056
:100C900085E00E9495006AE570E080E090E00E94A7
:100CA000E10060E085E00E94950061E084E00E9440
:100CB00095006AE570E080E090E00E94E10060E06D
:100CC00084E00E94950061E086E00E9495006AE55C
:100CD00070E080E090E00E94E10060E086E00E9429
:100CE000950061E085E00E9495006AE570E080E093
:100CF00090E00E94E10060E085E00E94950061E0E4
:100D000087E00E9495006AE570E080E090E00E9434
:100D1000E10060E087E00E94950061E086E00E94CB
:100D200095006AE570E080E090E00E94E10060E0FC
:100D300086E00E94950061E088E00E9495006AE5E7
:100D400070E080E090E00E94E10060E088E00E94B6
:100D5000950061E087E00E9495006AE570E080E020
:100D600090E00E94E10060E087E00E94950061E071
:100D700089E00E9495006AE570E080E090E00E94C2
:100D8000E10060E089E00E94950061E088E00E9457
:100D900095006AE570E080E090E00E94E10060E08C
:100DA00088E00E94950061E08AE00E9495006AE573
:100DB00070E080E090E00E94E10060E08AE00E9444
:100DC000950061E089E00E9495006AE570E080E0AE
:100DD00090E00E94E10060E089E00E94950061E0FF
:100DE0008BE00E9495006AE570E080E090E00E9450
:100DF000E10060E08BE00E94950061E08AE00E94E3
:100E000095006AE570E080E090E00E94E10060E01B
:100E10008AE00E94950061E082E00E9495006AE508
:100E200070E080E090E00E94E10060E082E00E94DB
:100E3000950061E08BE00E9495006AE570E080E03B
:100E400090E00E94E10060E08BE00E94950061E08C
:100E500083E00E9495006AE570E080E090E00E94E7
:100E6000E10060E083E00E949500219709F0E5CE63
:100E7000C3E0D0E061E082E00E9495006FE570E0A1
:100E800080E090E00E94E10060E082E00E94950036
:100E900061E083E00E9495006FE570E080E090E003
:100EA0000E94E10060E083E00E94950061E084E040
:100EB0000E9495006FE570E080E090E00E94E10004
:100EC00060E084E00E94950061E085E00E9495006A
:100ED0006FE570E080E090E00E94E10060E085E076
:100EE0000E94950061E086E00E9495006FE570E049
:100EF00080E090E00E94E10060E086E00E949500C2
:100F000061E087E00E9495006FE570E080E090E08E
:100F10000E94E10060E087E00E94950061E088E0C7
:100F20000E9495006FE570E080E090E00E94E10093
:100F300060E088E00E94950061E089E00E949500F1
:100F40006FE570E080E090E00E94E10060E089E001
:100F50000E94950061E08AE00E9495006FE570E0D4
:100F600080E090E00E94E10060E08AE00E9495004D
:100F700061E08BE00E9495006FE570E080E090E01A
:100F80000E94E10061E082E00E9495006FE570E060
:100F900080E090E00E94E10060E082E00E94950025
:100FA00061E083E00E9495006FE570E080E090E0F2
:100FB0000E94E10060E083E00E94950061E084E02F
:100FC0000E9495006FE570E080E090E00E94E100F3
:100FD00060E084E00E94950061E085E00E94950059
:100FE0006FE570E080E090E00E94E10060E085E065
:100FF0000E94950061E086E00E9495006FE570E038
:1010000080E090E00E94E10060E086E00E949500B0
:1010100061E087E00E9495006FE570E080E090E07D
:101020000E94E10060E087E00E94950061E088E0B6
:101030000E9495006FE570E080E090E00E94E10082
:1010400060E088E00E94950061E089E00E949500E0
:101050006FE570E080E090E00E94E10060E089E0F0
:101060000E94950061E08AE00E9495006FE570E0C3
:1010700080E090E00E94E10061E082E00E94950043
:101080006FE570E080E090E00E94E10060E082E0C7
:101090000E94950061E083E00E9495006FE570E09A
:1010A00080E090E00E94E10060E083E00E94950013
:1010B00061E084E00E9495006FE570E080E090E0E0
:1010C0000E94E10060E084E00E94950061E085E01C
:1010D0000E9495006FE570E080E090E00E94E100E2
:1010E00060E085E00E94950061E086E00E94950046
:1010F0006FE570E080E090E00E94E10060E086E053
:101100000E94950061E087E00E9495006FE570E025
:1011100080E090E00E94E10060E087E00E9495009E
:1011200061E088E00E9495006FE570E080E090E06B
:101130000E94E10060E088E00E94950061E089E0A3
:101140000E9495006FE570E080E090E00E94E10071
:1011500061E082E00E9495006FE570E080E090E041
:101160000E94E10060E082E00E94950061E083E07F
:101170000E9495006FE570E080E090E00E94E10041
:1011800060E083E00E94950061E084E00E949500A9
:101190006FE570E080E090E00E94E10060E084E0B4
:1011A0000E94950061E085E00E9495006FE570E087
:1011B00080E090E00E94E10060E085E00E94950000
:1011C00061E086E00E9495006FE570E080E090E0CD
:1011D0000E94E10060E086E00E94950061E087E007
:1011E0000E9495006FE570E080E090E00E94E100D1
:1011F00060E087E00E94950061E088E00E94950031
:101200006FE570E080E090E00E94E10061E082E044
:101210000E9495006FE570E080E090E00E94E100A0
:1012200060E082E00E94950061E083E00E9495000A
:101230006FE570E080E090E00E94E10060E083E014
:101240000E94950061E084E00E9495006FE570E0E7
:1012500080E090E00E94E10060E084E00E94950060
:1012600061E085E00E9495006FE570E080E090E02D
:101270000E94E10060E085E00E94950061E086E068
:101280000E9495006FE570E080E090E00E94E10030
:1012900060E086E00E94950061E087E00E94950092
:1012A0006FE570E080E090E00E94E10061E082E0A4
:1012B0000E9495006FE570E080E090E00E94E10000
:1012C00060E082E00E94950061E083E00E9495006A
:1012D0006FE570E080E090E00E94E10060E083E074
:1012E0000E94950061E084E00E9495006FE570E047
:1012F00080E090E00E94E10060E084E00E949500C0
:1013000061E085E00E9495006FE570E080E090E08C
:101310000E94E10060E085E00E94950061E086E0C7
:101320000E9495006FE570E080E090E00E94E1008F
:1013300061E082E00E9495006FE570E080E090E05F
:101340000E94E10060E082E00E94950061E083E09D
:101350000E9495006FE570E080E090E00E94E1005F
:1013600060E083E00E94950061E084E00E949500C7
:101370006FE570E080E090E00E94E10060E084E0D2
:101380000E94950061E085E00E9495006FE570E0A5
:1013900080E090E00E94E10061E082E00E94950020
:1013A0006FE570E080E090E00E94E10060E082E0A4
:1013B0000E94950061E083E00E9495006FE570E077
:1013C00080E090E00E94E10060E083E00E949500F0
:1013D00061E084E00E9495006FE570E080E090E0BD
:1013E0000E94E10061E082E00E9495006FE570E0FC
:1013F00080E090E00E94E10060E082E00E949500C1
:1014000061E083E00E9495006FE570E080E090E08D
:101410000E94E10061E082E00E9495006FE570E0CB
:1014200080E090E00E94E10060E08BE00E94950087
:1014300066E470E080E090E00E94E10061E08BE013
:101440000E94950060E08AE00E94950066E470E0EA
:1014500080E090E00E94E10061E08AE00E94950057
:1014600060E089E00E94950066E470E080E090E032
:101470000E94E10061E089E00E94950060E088E060
:101480000E94950066E470E080E090E00E94E10038
:1014900061E088E00E94950060E087E00E9495008E
:1014A00066E470E080E090E00E94E10061E087E0A7
:1014B0000E94950060E086E00E94950066E470E07E
:1014C00080E090E00E94E10061E086E00E949500EB
:1014D00060E085E00E94950066E470E080E090E0C6
:1014E0000E94E10061E085E00E94950060E084E0F8
:1014F0000E94950066E470E080E090E00E94E100C8
:1015000061E084E00E94950060E083E00E94950025
:1015100066E470E080E090E00E94E10061E083E03A
:101520000E94950060E082E00E94950066E470E011
:1015300080E090E00E94E10060E08BE00E94950076
:1015400066E470E080E090E00E94E10061E08BE002
:101550000E94950060E08AE00E94950066E470E0D9
:1015600080E090E00E94E10061E08AE00E94950046
:1015700060E089E00E94950066E470E080E090E021
:101580000E94E10061E089E00E94950060E088E04F
:101590000E94950066E470E080E090E00E94E10027
:1015A00061E088E00E94950060E087E00E9495007D
:1015B00066E470E080E090E00E94E10061E087E096
:1015C0000E94950060E086E00E94950066E470E06D
:1015D00080E090E00E94E10061E086E00E949500DA
:1015E00060E085E00E94950066E470E080E090E0B5
:1015F0000E94E10061E085E00E94950060E084E0E7
:101600000E94950066E470E080E090E00E94E100B6
:1016100061E084E00E94950060E083E00E94950014
:1016200066E470E080E090E00E94E10060E08BE022
:101630000E94950066E470E080E090E00E94E10086
:1016400061E08BE00E94950060E08AE00E949500D6
:1016500066E470E080E090E00E94E10061E08AE0F2
:101660000E94950060E089E00E94950066E470E0C9
:1016700080E090E00E94E10061E089E00E94950036
:1016800060E088E00E94950066E470E080E090E011
:101690000E94E10061E088E00E94950060E087E040
:1016A0000E94950066E470E080E090E00E94E10016
:1016B00061E087E00E94950060E086E00E9495006E
:1016C00066E470E080E090E00E94E10061E086E086
:1016D0000E94950060E085E00E94950066E470E05D
:1016E00080E090E00E94E10061E085E00E949500CA
:1016F00060E084E00E94950066E470E080E090E0A5
:101700000E94E10060E08BE00E94950066E470E0DA
:1017100080E090E00E94E10061E08BE00E94950093
:1017200060E08AE00E94950066E470E080E090E06E
:101730000E94E10061E08AE00E94950060E089E09B
:101740000E94950066E470E080E090E00E94E10075
:1017500061E089E00E94950060E088E00E949500C9
:1017600066E470E080E090E00E94E10061E088E0E3
:101770000E94950060E087E00E94950066E470E0BA
:1017800080E090E00E94E10061E087E00E94950027
:1017900060E086E00E94950066E470E080E090E002
:1017A0000E94E10061E086E00E94950060E085E033
:1017B0000E94950066E470E080E090E00E94E10005
:1017C00060E08BE00E94950066E470E080E090E0CD
:1017D0000E94E10061E08BE00E94950060E08AE0F9
:1017E0000E94950066E470E080E090E00E94E100D5
:1017F00061E08AE00E94950060E089E00E94950027
:1018000066E470E080E090E00E94E10061E089E041
:101810000E94950060E088E00E94950066E470E018
:1018200080E090E00E94E10061E088E00E94950085
:1018300060E087E00E94950066E470E080E090E060
:101840000E94E10061E087E00E94950060E086E090
:101850000E94950066E470E080E090E00E94E10064
:1018600060E08BE00E94950066E470E080E090E02C
:101870000E94E10061E08BE00E94950060E08AE058
:101880000E94950066E470E080E090E00E94E10034
:1018900061E08AE00E94950060E089E00E94950086
:1018A00066E470E080E090E00E94E10061E089E0A1
:1018B0000E94950060E088E00E94950066E470E078
:1018C00080E090E00E94E10061E088E00E949500E5
:1018D00060E087E00E94950066E470E080E090E0C0
:1018E0000E94E10060E08BE00E94950066E470E0F9
:1018F00080E090E00E94E10061E08BE00E949500B2
:1019000060E08AE00E94950066E470E080E090E08C
:101910000E94E10061E08AE00E94950060E089E0B9
:101920000E94950066E470E080E090E00E94E10093
:1019300061E089E00E94950060E088E00E949500E7
:1019400066E470E080E090E00E94E10060E08BE0FF
:101950000E94950066E470E080E090E00E94E10063
:1019600061E08BE00E94950060E08AE00E949500B3
:1019700066E470E080E090E00E94E10061E08AE0CF
:101980000E94950060E089E00E94950066E470E0A6
:1019900080E090E00E94E10060E08BE00E94950012
:1019A00066E470E080E090E00E94E10061E08BE09E
:1019B0000E94950060E08AE00E94950066E470E075
:1019C00080E090E00E94E10060E08BE00E949500E2
:1019D00064E670E080E090E00E94E100219709F069
:1019E00049CAC3E0D0E061E082E00E94950064E66D
:1019F00070E080E090E00E94E10061E083E00E94FE
:101A0000950064E670E080E090E00E94E10061E013
:101A100084E00E94950064E670E080E090E00E941F
:101A2000E10061E085E00E94950064E670E080E0FE
:101A300090E00E94E10061E086E00E94950064E68B
:101A400070E080E090E00E94E10061E087E00E94A9
:101A5000950064E670E080E090E00E94E10061E0C3
:101A600088E00E94950064E670E080E090E00E94CB
:101A7000E10061E089E00E94950064E670E080E0AA
:101A800090E00E94E10061E08AE00E94950064E637
:101A900070E080E090E00E94E10061E08BE00E9455
:101AA000950064E670E080E090E00E94E10060E074
:101AB00082E00E94950064E670E080E090E00E9481
:101AC000E10060E083E00E94950064E670E080E061
:101AD00090E00E94E10060E084E00E94950064E6EE
:101AE00070E080E090E00E94E10060E085E00E940C
:101AF000950064E670E080E090E00E94E10060E024
:101B000086E00E94950064E670E080E090E00E942C
:101B1000E10060E087E00E94950064E670E080E00C
:101B200090E00E94E10060E088E00E94950064E699
:101B300070E080E090E00E94E10060E089E00E94B7
:101B4000950064E670E080E090E00E94E10060E0D3
:101B50008AE00E94950064E670E080E090E00E94D8
:101B6000E10060E08BE00E94950064E670E080E0B8
:101B700090E00E94E10061E08BE00E94950064E645
:101B800070E080E090E00E94E10061E08AE00E9465
:101B9000950064E670E080E090E00E94E10061E082
:101BA00089E00E94950064E670E080E090E00E9489
:101BB000E10061E088E00E94950064E670E080E06A
:101BC00090E00E94E10061E087E00E94950064E6F9
:101BD00070E080E090E00E94E10061E086E00E9419
:101BE000950064E670E080E090E00E94E10061E032
:101BF00085E00E94950064E670E080E090E00E943D
:101C0000E10061E084E00E94950064E670E080E01D
:101C100090E00E94E10061E083E00E94950064E6AC
:101C200070E080E090E00E94E10061E082E00E94CC
:101C3000950064E670E080E090E00E94E10060E0E2
:101C40008BE00E94950064E670E080E090E00E94E6
:101C5000E10060E08AE00E94950064E670E080E0C8
:101C600090E00E94E10060E089E00E94950064E657
:101C700070E080E090E00E94E10060E088E00E9477
:101C8000950064E670E080E090E00E94E10060E092
:101C900087E00E94950064E670E080E090E00E949A
:101CA000E10060E086E00E94950064E670E080E07C
:101CB00090E00E94E10060E085E00E94950064E60B
:101CC00070E080E090E00E94E10060E084E00E942B
:101CD000950064E670E080E090E00E94E10060E042
:101CE00083E00E94950064E670E080E090E00E944E
:101CF000E10060E082E00E94950064E670E080E030
:101D000090E00E94E100219709F06DCECCE0D0E098
:101D100061E082E00E94950061E083E00E9495000E
:101D200061E084E00E94950061E085E00E949500FA
:101D300061E086E00E94950061E087E00E949500E6
:101D400061E088E00E94950061E089E00E949500D2
:101D500061E08AE00E94950061E08BE00E949500BE
:101D600066E970E080E090E00E94E10060E082E0DF
:101D70000E94950060E084E00E94950060E086E0AB
:101D80000E94950060E088E00E94950060E08AE093
:101D90000E9495006EE571E080E090E00E94E10015
:101DA00061E082E00E94950061E084E00E9495007D
:101DB00061E086E00E94950061E088E00E94950065
:101DC00061E08AE00E94950066E970E080E090E0C2
:101DD0000E94E10060E083E00E94950060E085E001
:101DE0000E94950060E087E00E94950060E089E035
:101DF0000E94950060E08BE00E9495006EE571E026
:101E000080E090E00E94E100219709F081CF60E03E
:101E100082E00E94950060E084E00E94950060E00E
:101E200086E00E94950060E088E00E94950060E0F6
:101E30008AE00E94950066E970E080E090E00E94F0
:101E4000E100CCE0D0E061E086E00E94950061E036
:101E500087E00E9495006BE570E080E090E00E94D2
:101E6000E10060E086E00E94950060E087E00E946B
:101E7000950061E085E00E94950061E088E00E94A5
:101E800095006BE570E080E090E00E94E10060E08A
:101E900085E00E94950060E088E00E94950061E086
:101EA00084E00E94950061E089E00E9495006BE566
:101EB00070E080E090E00E94E10060E084E00E9439
:101EC000950060E089E00E94950061E083E00E9457
:101ED000950061E08AE00E9495006BE570E080E08B
:101EE00090E00E94E10060E083E00E94950060E0E5
:101EF0008AE00E94950061E082E00E94950061E026
:101F00008BE00E9495006BE570E080E090E00E941D
:101F1000E10060E082E00E94950060E08BE00E94BA
:101F2000950061E083E00E94950061E08AE00E94F4
:101F300095006BE570E080E090E00E94E10060E0D9
:101F400083E00E94950060E08AE00E94950061E0D5
:101F500084E00E94950061E089E00E9495006BE5B5
:101F600070E080E090E00E94E10060E084E00E9488
:101F7000950060E089E00E94950061E085E00E94A4
:101F8000950061E088E00E9495006BE570E080E0DC
:101F900090E00E94E10060E085E00E94950060E032
:101FA00088E00E949500219709F04DCFC8E0D0E06D
:101FB00060E089E00E94950061E082E00E94950067
:101FC00067E670E080E090E00E94E10060E08AE077
:101FD0000E94950061E083E00E94950067E670E052
:101FE00080E090E00E94E10060E08BE00E949500BC
:101FF00061E084E00E94950067E670E080E090E098
:102000000E94E10060E082E00E94950061E085E0CE
:102010000E94950067E670E080E090E00E94E10099
:1020200060E083E00E94950061E086E00E949500F8
:1020300067E670E080E090E00E94E10060E084E00C
:102040000E94950061E087E00E94950067E670E0DD
:1020500080E090E00E94E10060E085E00E94950051
:1020600061E088E00E94950067E670E080E090E023
:102070000E94E10060E086E00E94950061E089E056
:102080000E94950067E670E080E090E00E94E10029
:1020900060E087E00E94950061E08AE00E94950080
:1020A00067E670E080E090E00E94E10060E088E098
:1020B0000E94950061E08BE00E94950067E670E069
:1020C00080E090E00E94E100219709F071CF60E08C
:1020D00089E00E94950067E670E080E090E00E9451
:1020E000E10060E08AE00E94950067E670E080E031
:1020F00090E00E94E10060E08BE00E949500C7E064
:10210000D0E061E082E00E94950061E084E00E94FE
:10211000950061E087E00E94950061E089E00E94FF
:10212000950064E670E080E090E00E94E10060E0ED
:1021300082E00E94950060E084E00E94950060E0EB
:1021400087E00E94950060E089E00E94950061E0D0
:1021500083E00E94950061E085E00E94950061E0C7
:1021600088E00E94950061E08AE00E94950064E6A4
:1021700070E080E090E00E94E10060E083E00E9477
:10218000950060E085E00E94950060E088E00E9494
:10219000950060E08AE00E94950061E084E00E9482
:1021A000950061E086E00E94950061E089E00E9470
:1021B000950061E08BE00E94950064E670E080E0AD
:1021C00090E00E94E10060E084E00E94950060E001
:1021D00086E00E94950060E089E00E94950060E042
:1021E0008BE00E94950061E085E00E94950061E02F
:1021F00087E00E94950061E08AE00E94950061E01E
:1022000082E00E94950064E670E080E090E00E9429
:10221000E10060E085E00E94950060E087E00E94B8
:10222000950060E08AE00E94950060E082E00E94F4
:10223000950061E086E00E94950061E088E00E94E0
:10224000950061E08BE00E94950061E083E00E94D0
:10225000950064E670E080E090E00E94E10060E0BC
:1022600086E00E94950060E088E00E94950060E0B2
:102270008BE00E94950060E083E00E94950061E0A1
:1022800087E00E94950061E089E00E94950061E08E
:1022900082E00E94950061E084E00E94950064E67F
:1022A00070E080E090E00E94E10060E087E00E9442
:1022B000950060E089E00E94950060E082E00E9465
:1022C000950060E084E00E94950061E088E00E9453
:1022D000950061E08AE00E94950061E083E00E9441
:1022E000950061E085E00E94950064E670E080E082
:1022F00090E00E94E10060E088E00E94950060E0CC
:102300008AE00E94950060E083E00E94950060E012
:1023100085E00E94950061E089E00E94950061E0FF
:102320008BE00E94950061E084E00E94950061E0EE
:1023300086E00E94950064E670E080E090E00E94F4
:10234000E10060E089E00E94950060E08BE00E947F
:10235000950060E084E00E94950060E086E00E94C5
:10236000950061E08AE00E94950061E082E00E94B1
:10237000950061E085E00E94950061E087E00E94A1
:10238000950064E670E080E090E00E94E10060E08B
:102390008AE00E94950060E082E00E94950060E083
:1023A00085E00E94950060E087E00E94950061E072
:1023B0008BE00E94950061E083E00E94950061E05F
:1023C00086E00E94950061E088E00E94950064E646
:1023D00070E080E090E00E94E10060E08BE00E940D
:1023E000950060E083E00E94950060E086E00E9436
:1023F000950060E088E00E949500219709F081CE69
:10240000C4E0D0E061E082E00E94950066EB70E0FD
:1024100080E090E00E94E10061E08BE00E94950086
:1024200066EB70E080E090E00E94E10061E083E014
:102430000E94950066EB70E080E090E00E94E10071
:1024400061E08AE00E94950066EB70E080E090E039
:102450000E94E10061E084E00E94950066EB70E07C
:1024600080E090E00E94E10061E089E00E94950038
:1024700066EB70E080E090E00E94E10061E085E0C2
:102480000E94950066EB70E080E090E00E94E10021
:1024900061E088E00E94950066EB70E080E090E0EB
:1024A0000E94E10061E086E00E94950066EB70E02A
:1024B00080E090E00E94E10061E087E00E949500EA
:1024C00066EB70E080E090E00E94E10060E082E076
:1024D0000E94950066EB70E080E090E00E94E100D1
:1024E00060E08BE00E94950066EB70E080E090E099
:1024F0000E94E10060E083E00E94950066EB70E0DE
:1025000080E090E00E94E10060E08AE00E94950097
:1025100066EB70E080E090E00E94E10060E084E023
:102520000E94950066EB70E080E090E00E94E10080
:1025300060E089E00E94950066EB70E080E090E04A
:102540000E94E10060E085E00E94950066EB70E08B
:1025500080E090E00E94E10060E088E00E94950049
:1025600066EB70E080E090E00E94E10060E086E0D1
:102570000E94950066EB70E080E090E00E94E10030
:1025800060E087E00E94950066EB70E080E090E0FC
:102590000E94E100219709F035CFC4E0D0E060E06F
:1025A00082E00E94950060E083E00E94950061E077
:1025B00084E00E94950061E085E00E94950061E062
:1025C00086E00E94950061E087E00E94950061E04E
:1025D00088E00E94950061E089E00E94950061E03A
:1025E0008AE00E94950061E08BE00E9495006DE713
:1025F00070E080E090E00E94E10061E082E00E94F3
:10260000950060E084E00E9495006DE770E080E056
:1026100090E00E94E10061E083E00E94950060E0AC
:1026200085E00E9495006DE770E080E090E00E94F8
:10263000E10061E084E00E94950060E086E00E9495
:1026400095006DE770E080E090E00E94E10061E0BD
:1026500085E00E94950060E087E00E9495006DE7AC
:1026600070E080E090E00E94E10061E086E00E947E
:10267000950060E088E00E9495006DE770E080E0E2
:1026800090E00E94E10061E087E00E94950060E038
:1026900089E00E9495006DE770E080E090E00E9484
:1026A000E10061E088E00E94950060E08AE00E941D
:1026B00095006DE770E080E090E00E94E10061E04D
:1026C00089E00E94950060E08BE00E9495006DE734
:1026D00070E080E090E00E94E10061E08BE00E9409
:1026E000950060E089E00E9495006DE770E080E071
:1026F00090E00E94E10061E08AE00E94950060E0C5
:1027000088E00E9495006DE770E080E090E00E9414
:10271000E10061E089E00E94950060E087E00E94AE
:1027200095006DE770E080E090E00E94E10061E0DC
:1027300088E00E94950060E086E00E9495006DE7C9
:1027400070E080E090E00E94E10061E087E00E949C
:10275000950060E085E00E9495006DE770E080E004
:1027600090E00E94E10061E086E00E94950060E058
:1027700084E00E9495006DE770E080E090E00E94A8
:10278000E10061E085E00E94950060E083E00E9446
:1027900095006DE770E080E090E00E94E1002197F5
:1027A00009F0FDCECEE1D0E061E084E00E9495002A
:1027B00069E170E080E090E00E94E10060E084E088
:1027C0000E94950069E170E080E090E00E94E100E5
:1027D00061E082E00E94950069E170E080E090E0B5
:1027E0000E94E10060E082E00E94950069E170E0F3
:1027F00080E090E00E94E10061E085E00E949500A9
:1028000069E170E080E090E00E94E10060E085E036
:102810000E94950069E170E080E090E00E94E10094
:1028200061E089E00E94950069E170E080E090E05D
:102830000E94E10060E089E00E94950069E170E09B
:1028400080E090E00E94E10061E083E00E9495005A
:1028500069E170E080E090E00E94E10060E083E0E8
:102860000E94950069E170E080E090E00E94E10044
:1028700061E08AE00E94950069E170E080E090E00C
:102880000E94E10060E08AE00E94950069E170E04A
:1028900080E090E00E94E10061E087E00E94950006
:1028A00069E170E080E090E00E94E10060E087E094
:1028B0000E94950069E170E080E090E00E94E100F4
:1028C00061E08BE00E94950069E170E080E090E0BB
:1028D0000E94E10060E08BE00E94950069E170E0F9
:1028E00080E090E00E94E10061E086E00E949500B7
:1028F00069E170E080E090E00E94E10060E086E045
:102900000E94950069E170E080E090E00E94E100A3
:1029100061E088E00E94950069E170E080E090E06D
:102920000E94E10060E088E00E94950069E170E0AB
:1029300080E090E00E94E100219709F035CFC6E0E9
:10294000D0E061E082E00E94950065E570E080E003
:1029500090E00E94E10061E083E00E94950065E55F
:1029600070E080E090E00E94E10061E084E00E947D
:10297000950065E570E080E090E00E94E10061E094
:1029800085E00E94950065E570E080E090E00E949F
:10299000E10061E086E00E94950065E570E080E07E
:1029A00090E00E94E10061E087E00E94950065E50B
:1029B00070E080E090E00E94E10061E088E00E9429
:1029C000950065E570E080E090E00E94E10061E044
:1029D00089E00E94950065E570E080E090E00E944B
:1029E000E10061E08AE00E94950065E570E080E02A
:1029F00090E00E94E10061E08BE00E94950065E5B7
:102A000070E080E090E00E94E10060E08BE00E94D6
:102A1000950060E08AE00E94950060E089E00E94F5
:102A2000950060E088E00E94950060E087E00E94E9
:102A3000950060E086E00E94950060E085E00E94DD
:102A4000950060E084E00E94950060E083E00E94D1
:102A5000950060E082E00E94950065E570E080E00E
:102A600090E00E94E10061E082E00E94950061E058
:102A700083E00E94950061E084E00E94950061E09F
:102A800085E00E94950061E086E00E94950061E08B
:102A900087E00E94950061E088E00E94950061E077
:102AA00089E00E94950061E08AE00E94950061E063
:102AB0008BE00E94950065E570E080E090E00E9468
:102AC000E10060E08BE00E94950060E08AE00E94F7
:102AD000950060E089E00E94950060E088E00E9437
:102AE000950060E087E00E94950060E086E00E942B
:102AF000950060E085E00E94950060E084E00E941F
:102B0000950060E083E00E94950060E082E00E9412
:102B1000950065E570E080E090E00E94E10061E0F2
:102B20008BE00E94950065E570E080E090E00E94F7
:102B3000E10061E08AE00E94950065E570E080E0D8
:102B400090E00E94E10061E089E00E94950065E567
:102B500070E080E090E00E94E10061E088E00E9487
:102B6000950065E570E080E090E00E94E10061E0A2
:102B700087E00E94950065E570E080E090E00E94AB
:102B8000E10061E086E00E94950065E570E080E08C
:102B900090E00E94E10061E085E00E94950065E51B
:102BA00070E080E090E00E94E10061E084E00E943B
:102BB000950065E570E080E090E00E94E10061E052
:102BC00083E00E94950065E570E080E090E00E945F
:102BD000E10061E082E00E94950065E570E080E040
:102BE00090E00E94E10060E08BE00E94950060E0D0
:102BF0008AE00E94950060E089E00E94950060E014
:102C000088E00E94950060E087E00E94950060E007
:102C100086E00E94950060E085E00E94950060E0FB
:102C200084E00E94950060E083E00E94950060E0EF
:102C300082E00E94950065E570E080E090E00E94EF
:102C4000E10061E082E00E94950061E083E00E9483
:102C5000950061E084E00E94950061E085E00E94BB
:102C6000950061E086E00E94950061E087E00E94A7
:102C7000950061E088E00E94950061E089E00E9493
:102C8000950061E08AE00E94950061E08BE00E947F
:102C9000950065E570E080E090E00E94E10060E072
:102CA0008BE00E94950060E08AE00E94950060E061
:102CB00089E00E94950060E088E00E94950060E055
:102CC00087E00E94950060E086E00E94950060E049
:102CD00085E00E94950060E084E00E94950060E03D
:102CE00083E00E94950060E082E00E94950065E527
:102CF00070E080E090E00E94E100219709F021CE91
:102D0000C6E0D0E061E082E00E94950061E087E0EB
:102D10000E94950068EC70E080E090E00E94E10085
:102D200061E083E00E94950061E088E00E949500E8
:102D300068EC70E080E090E00E94E10061E084E0F7
:102D40000E94950061E089E00E94950068EC70E0C7
:102D500080E090E00E94E10061E085E00E94950043
:102D600061E08AE00E94950068EC70E080E090E00D
:102D70000E94E10061E086E00E94950061E08BE046
:102D80000E94950068EC70E080E090E00E94E10015
:102D900060E082E00E94950060E087E00E9495007C
:102DA00068EC70E080E090E00E94E10060E083E089
:102DB0000E94950060E088E00E94950068EC70E059
:102DC00080E090E00E94E10060E084E00E949500D5
:102DD00060E089E00E94950068EC70E080E090E09F
:102DE0000E94E10060E085E00E94950060E08AE0DA
:102DF0000E94950068EC70E080E090E00E94E100A5
:102E000060E086E00E94950060E08BE00E94950003
:102E100068EC70E080E090E00E94E100219709F00A
:102E200071CFC5E0D0E060E082E00E94950060E0F4
:102E300083E00E94950060E084E00E94950060E0DD
:102E400085E00E94950060E086E00E94950060E0C9
:102E500087E00E94950060E088E00E94950060E0B5
:102E600089E00E94950060E08AE00E94950060E0A1
:102E70008BE00E9495006EE571E080E090E00E949A
:102E8000E10061E086E00E94950061E087E00E9439
:102E900095006EE571E080E090E00E94E10060E066
:102EA00086E00E94950060E087E00E94950061E066
:102EB00085E00E94950061E088E00E9495006EE543
:102EC00071E080E090E00E94E10060E085E00E9417
:102ED000950060E088E00E94950061E084E00E9437
:102EE000950061E089E00E9495006EE571E080E068
:102EF00090E00E94E10060E084E00E94950060E0C4
:102F000089E00E94950061E083E00E94950061E005
:102F10008AE00E9495006EE571E080E090E00E94FA
:102F2000E10060E083E00E94950060E08AE00E949A
:102F3000950061E082E00E94950061E08BE00E94D4
:102F400095006EE571E080E090E00E94E10061E0B4
:102F500086E00E94950061E087E00E9495006EE5A2
:102F600071E080E090E00E94E10060E086E00E9475
:102F7000950060E087E00E94950061E085E00E9496
:102F8000950061E088E00E9495006EE571E080E0C8
:102F900090E00E94E10060E085E00E94950060E022
:102FA00088E00E94950061E084E00E94950061E065
:102FB00089E00E9495006EE571E080E090E00E945B
:102FC000E10060E084E00E94950060E089E00E94FA
:102FD000950061E083E00E94950061E08AE00E9434
:102FE00095006EE571E080E090E00E94E10061E014
:102FF00086E00E94950061E087E00E9495006EE502
:1030000071E080E090E00E94E10060E086E00E94D4
:10301000950060E087E00E94950061E085E00E94F5
:10302000950061E088E00E9495006EE571E080E027
:1030300090E00E94E10060E085E00E94950060E081
:1030400088E00E94950061E084E00E94950061E0C4
:1030500089E00E9495006EE571E080E090E00E94BA
:10306000E10061E086E00E94950061E087E00E9457
:1030700095006EE571E080E090E00E94E10060E084
:1030800086E00E94950060E087E00E94950061E084
:1030900085E00E94950061E088E00E9495006EE561
:1030A00071E080E090E00E94E10061E086E00E9433
:1030B000950061E087E00E9495006EE571E080E098
:1030C00090E00E94E100219709F0ADCEC8E0D0E089
:1030D00061E082E00E94950061E083E00E9495003B
:1030E00061E084E00E94950061E085E00E94950027
:1030F00061E086E00E94950061E087E00E94950013
:1031000061E088E00E94950061E089E00E949500FE
:1031100061E08AE00E94950061E08BE00E949500EA
:1031200068E770E080E090E00E94E10060E08BE002
:103130000E94950060E08AE00E94950060E089E0CE
:103140000E94950060E088E00E94950060E087E0C2
:103150000E94950060E086E00E94950060E085E0B6
:103160000E94950060E084E00E94950060E083E0AA
:103170000E94950060E082E00E94950068E770E0A0
:1031800080E090E00E94E10061E082E00E94950012
:1031900061E083E00E94950061E084E00E94950078
:1031A00061E085E00E94950061E086E00E94950064
:1031B00061E087E00E94950061E088E00E94950050
:1031C00061E089E00E94950061E08AE00E9495003C
:1031D00061E08BE00E94950068E770E080E090E09D
:1031E0000E94E10060E08BE00E94950060E08AE0D0
:1031F0000E94950060E089E00E94950060E088E010
:103200000E94950060E087E00E94950060E086E003
:103210000E94950060E085E00E94950060E084E0F7
:103220000E94950060E083E00E94950060E082E0EB
:103230000E94950060E971E080E090E00E94E1006A
:10324000219709F045CFC5E0D0E061E082E00E941F
:10325000950066E970E080E090E00E94E10061E0A6
:1032600083E00E94950066E970E080E090E00E94B3
:10327000E10061E084E00E94950066E970E080E092
:1032800090E00E94E10060E082E00E94950061E031
:1032900085E00E94950066E970E080E090E00E9481
:1032A000E10060E083E00E94950061E086E00E941A
:1032B000950066E970E080E090E00E94E10060E047
:1032C00084E00E94950061E087E00E94950066E935
:1032D00070E080E090E00E94E10060E085E00E9404
:1032E000950061E088E00E94950066E970E080E06A
:1032F00090E00E94E10060E086E00E94950061E0BD
:1033000089E00E94950066E970E080E090E00E940C
:10331000E10060E087E00E94950061E08AE00E94A1
:10332000950066E970E080E090E00E94E10060E0D6
:1033300088E00E94950061E08BE00E94950066E9BC
:1033400070E080E090E00E94E10060E089E00E948F
:10335000950066E970E080E090E00E94E10060E0A6
:103360008AE00E94950066E970E080E090E00E94AB
:10337000E10060E08BE00E94950066E970E080E08B
:1033800090E00E94E10061E08BE00E94950066E918
:1033900070E080E090E00E94E10061E08AE00E943D
:1033A000950066E970E080E090E00E94E10061E055
:1033B00089E00E94950066E970E080E090E00E945C
:1033C000E10060E08BE00E94950061E088E00E94EF
:1033D000950066E970E080E090E00E94E10060E026
:1033E0008AE00E94950061E087E00E94950066E90E
:1033F00070E080E090E00E94E10060E089E00E94DF
:10340000950061E086E00E94950066E970E080E04A
:1034100090E00E94E10060E088E00E94950061E099
:1034200085E00E94950066E970E080E090E00E94EF
:10343000E10060E087E00E94950061E084E00E9486
:10344000950066E970E080E090E00E94E10060E0B5
:1034500086E00E94950061E083E00E94950066E9A5
:1034600070E080E090E00E94E10060E085E00E9472
:10347000950061E082E00E94950066E970E080E0DE
:1034800090E00E94E10060E084E00E94950066E91F
:1034900070E080E090E00E94E10060E083E00E9444
:1034A000950066E970E080E090E00E94E10060E055
:1034B00082E00E94950066E970E080E090E00E9462
:1034C000E100219709F0C1CE0115110511F40C940A
:0E34D000E7010E9400000C94E501F894FFCF84
:00000001FF
